{
  "_format": "hh-sol-artifact-1",
  "contractName": "CarbonMRV",
  "sourceName": "contracts/CarbonMRV.sol",
  "abi": [
    {
      "inputs": [],
      "stateMutability": "nonpayable",
      "type": "constructor"
    },
    {
      "anonymous": false,
      "inputs": [
        {
          "indexed": true,
          "internalType": "uint256",
          "name": "submissionId",
          "type": "uint256"
        },
        {
          "indexed": true,
          "internalType": "address",
          "name": "verifier",
          "type": "address"
        }
      ],
      "name": "AccessGranted",
      "type": "event"
    },
    {
      "anonymous": false,
      "inputs": [
        {
          "indexed": true,
          "internalType": "address",
          "name": "farmer",
          "type": "address"
        },
        {
          "indexed": false,
          "internalType": "uint256",
          "name": "amount",
          "type": "uint256"
        },
        {
          "indexed": false,
          "internalType": "uint256",
          "name": "submissionId",
          "type": "uint256"
        }
      ],
      "name": "CreditMinted",
      "type": "event"
    },
    {
      "anonymous": false,
      "inputs": [
        {
          "indexed": true,
          "internalType": "uint256",
          "name": "submissionId",
          "type": "uint256"
        },
        {
          "indexed": true,
          "internalType": "address",
          "name": "farmer",
          "type": "address"
        },
        {
          "indexed": false,
          "internalType": "uint256",
          "name": "confidenceScore",
          "type": "uint256"
        },
        {
          "indexed": false,
          "internalType": "bool",
          "name": "approved",
          "type": "bool"
        },
        {
          "indexed": false,
          "internalType": "uint256",
          "name": "timestamp",
          "type": "uint256"
        }
      ],
      "name": "VerificationLogged",
      "type": "event"
    },
    {
      "inputs": [
        {
          "internalType": "address",
          "name": "",
          "type": "address"
        }
      ],
      "name": "creditBalance",
      "outputs": [
        {
          "internalType": "uint256",
          "name": "",
          "type": "uint256"
        }
      ],
      "stateMutability": "view",
      "type": "function"
    },
    {
      "inputs": [
        {
          "internalType": "address",
          "name": "farmer",
          "type": "address"
        }
      ],
      "name": "getBalance",
      "outputs": [
        {
          "internalType": "uint256",
          "name": "",
          "type": "uint256"
        }
      ],
      "stateMutability": "view",
      "type": "function"
    },
    {
      "inputs": [
        {
          "internalType": "uint256",
          "name": "id",
          "type": "uint256"
        }
      ],
      "name": "getSubmission",
      "outputs": [
        {
          "components": [
            {
              "internalType": "address",
              "name": "farmer",
              "type": "address"
            },
            {
              "internalType": "string",
              "name": "ipfsCID",
              "type": "string"
            },
            {
              "internalType": "uint256",
              "name": "confidenceScore",
              "type": "uint256"
            },
            {
              "internalType": "uint256",
              "name": "carbonCredits",
              "type": "uint256"
            },
            {
              "internalType": "bool",
              "name": "approved",
              "type": "bool"
            },
            {
              "internalType": "uint256",
              "name": "timestamp",
              "type": "uint256"
            }
          ],
          "internalType": "struct CarbonMRV.Submission",
          "name": "",
          "type": "tuple"
        }
      ],
      "stateMutability": "view",
      "type": "function"
    },
    {
      "inputs": [
        {
          "internalType": "uint256",
          "name": "submissionId",
          "type": "uint256"
        },
        {
          "internalType": "address",
          "name": "verifier",
          "type": "address"
        }
      ],
      "name": "grantAccess",
      "outputs": [],
      "stateMutability": "nonpayable",
      "type": "function"
    },
    {
      "inputs": [
        {
          "internalType": "address",
          "name": "farmer",
          "type": "address"
        },
        {
          "internalType": "string",
          "name": "ipfsCID",
          "type": "string"
        },
        {
          "internalType": "uint256",
          "name": "confidenceScore",
          "type": "uint256"
        },
        {
          "internalType": "bool",
          "name": "approved",
          "type": "bool"
        }
      ],
      "name": "logVerification",
      "outputs": [
        {
          "internalType": "uint256",
          "name": "",
          "type": "uint256"
        }
      ],
      "stateMutability": "nonpayable",
      "type": "function"
    },
    {
      "inputs": [
        {
          "internalType": "address",
          "name": "farmer",
          "type": "address"
        },
        {
          "internalType": "uint256",
          "name": "amount",
          "type": "uint256"
        },
        {
          "internalType": "uint256",
          "name": "submissionId",
          "type": "uint256"
        }
      ],
      "name": "mintCredit",
      "outputs": [],
      "stateMutability": "nonpayable",
      "type": "function"
    },
    {
      "inputs": [],
      "name": "owner",
      "outputs": [
        {
          "internalType": "address",
          "name": "",
          "type": "address"
        }
      ],
      "stateMutability": "view",
      "type": "function"
    },
    {
      "inputs": [],
      "name": "submissionCount",
      "outputs": [
        {
          "internalType": "uint256",
          "name": "",
          "type": "uint256"
        }
      ],
      "stateMutability": "view",
      "type": "function"
    },
    {
      "inputs": [
        {
          "internalType": "uint256",
          "name": "",
          "type": "uint256"
        }
      ],
      "name": "submissions",
      "outputs": [
        {
          "internalType": "address",
          "name": "farmer",
          "type": "address"
        },
        {
          "internalType": "string",
          "name": "ipfsCID",
          "type": "string"
        },
        {
          "internalType": "uint256",
          "name": "confidenceScore",
          "type": "uint256"
        },
        {
          "internalType": "uint256",
          "name": "carbonCredits",
          "type": "uint256"
        },
        {
          "internalType": "bool",
          "name": "approved",
          "type": "bool"
        },
        {
          "internalType": "uint256",
          "name": "timestamp",
          "type": "uint256"
        }
      ],
      "stateMutability": "view",
      "type": "function"
    }
  ],
  "bytecode": "0x608060405234801561001057600080fd5b50336000806101000a81548173ffffffffffffffffffffffffffffffffffffffff021916908373ffffffffffffffffffffffffffffffffffffffff160217905550611633806100606000396000f3fe608060405234801561001057600080fd5b50600436106100935760003560e01c8063ad73349e11610066578063ad73349e14610120578063bc5a5ffe14610155578063f8b2cb4f14610171578063f9e0afaa146101a1578063fc8b9c06146101d157610093565b80633e8686cc1461009857806365dd152c146100c85780636ec02be9146100e45780638da5cb5b14610102575b600080fd5b6100b260048036038101906100ad9190610aac565b610201565b6040516100bf9190610c5d565b60405180910390f35b6100e260048036038101906100dd9190610cab565b61034f565b005b6100ec61043b565b6040516100f99190610cfa565b60405180910390f35b61010a610441565b6040516101179190610d24565b60405180910390f35b61013a60048036038101906101359190610aac565b610465565b60405161014c96959493929190610d98565b60405180910390f35b61016f600480360381019061016a9190610e00565b610556565b005b61018b60048036038101906101869190610e53565b6107b1565b6040516101989190610cfa565b60405180910390f35b6101bb60048036038101906101b69190610fe1565b6107fa565b6040516101c89190610cfa565b60405180910390f35b6101eb60048036038101906101e69190610e53565b6109fc565b6040516101f89190610cfa565b60405180910390f35b610209610a14565b600260008381526020019081526020016000206040518060c00160405290816000820160009054906101000a900473ffffffffffffffffffffffffffffffffffffffff1673ffffffffffffffffffffffffffffffffffffffff1673ffffffffffffffffffffffffffffffffffffffff16815260200160018201805461028d90611093565b80601f01602080910402602001604051908101604052809291908181526020018280546102b990611093565b80156103065780601f106102db57610100808354040283529160200191610306565b820191906000526020600020905b8154815290600101906020018083116102e957829003601f168201915b5050505050815260200160028201548152602001600382015481526020016004820160009054906101000a900460ff161515151581526020016005820154815250509050919050565b3373ffffffffffffffffffffffffffffffffffffffff166002600084815260200190815260200160002060000160009054906101000a900473ffffffffffffffffffffffffffffffffffffffff1673ffffffffffffffffffffffffffffffffffffffff16146103f3576040517f08c379a00000000000000000000000000000000000000000000000000000000081526004016103ea90611110565b60405180910390fd5b8073ffffffffffffffffffffffffffffffffffffffff16827f3c3a9147a1fc73dd51a32f4d10c43d457e8cb826eb6f35cac6349eb965ba82b460405160405180910390a35050565b60035481565b60008054906101000a900473ffffffffffffffffffffffffffffffffffffffff1681565b60026020528060005260406000206000915090508060000160009054906101000a900473ffffffffffffffffffffffffffffffffffffffff16908060010180546104ae90611093565b80601f01602080910402602001604051908101604052809291908181526020018280546104da90611093565b80156105275780601f106104fc57610100808354040283529160200191610527565b820191906000526020600020905b81548152906001019060200180831161050a57829003601f168201915b5050505050908060020154908060030154908060040160009054906101000a900460ff16908060050154905086565b60008054906101000a900473ffffffffffffffffffffffffffffffffffffffff1673ffffffffffffffffffffffffffffffffffffffff163373ffffffffffffffffffffffffffffffffffffffff16146105e4576040517f08c379a00000000000000000000000000000000000000000000000000000000081526004016105db9061117c565b60405180910390fd5b6002600082815260200190815260200160002060040160009054906101000a900460ff16610647576040517f08c379a000000000000000000000000000000000000000000000000000000000815260040161063e906111e8565b60405180910390fd5b8273ffffffffffffffffffffffffffffffffffffffff166002600083815260200190815260200160002060000160009054906101000a900473ffffffffffffffffffffffffffffffffffffffff1673ffffffffffffffffffffffffffffffffffffffff16146106eb576040517f08c379a00000000000000000000000000000000000000000000000000000000081526004016106e290611254565b60405180910390fd5b81600160008573ffffffffffffffffffffffffffffffffffffffff1673ffffffffffffffffffffffffffffffffffffffff168152602001908152602001600020600082825461073a91906112a3565b925050819055508160026000838152602001908152602001600020600301819055508273ffffffffffffffffffffffffffffffffffffffff167f3f3b65b9c12a6beef064aa3de056487c5ed4e020ce1f3f6666948b13295d0e5c83836040516107a49291906112d7565b60405180910390a2505050565b6000600160008373ffffffffffffffffffffffffffffffffffffffff1673ffffffffffffffffffffffffffffffffffffffff168152602001908152602001600020549050919050565b60008060009054906101000a900473ffffffffffffffffffffffffffffffffffffffff1673ffffffffffffffffffffffffffffffffffffffff163373ffffffffffffffffffffffffffffffffffffffff161461088b576040517f08c379a00000000000000000000000000000000000000000000000000000000081526004016108829061117c565b60405180910390fd5b6000600360008154809291906108a090611300565b9190505590506040518060c001604052808773ffffffffffffffffffffffffffffffffffffffff168152602001868152602001858152602001600081526020018415158152602001428152506002600083815260200190815260200160002060008201518160000160006101000a81548173ffffffffffffffffffffffffffffffffffffffff021916908373ffffffffffffffffffffffffffffffffffffffff160217905550602082015181600101908161095b91906114f4565b50604082015181600201556060820151816003015560808201518160040160006101000a81548160ff02191690831515021790555060a082015181600501559050508573ffffffffffffffffffffffffffffffffffffffff16817fd0ca1f4db005c7f3c6ae04eb720a53a5831f9b5129070212ab46bb065663de068686426040516109e8939291906115c6565b60405180910390a380915050949350505050565b60016020528060005260406000206000915090505481565b6040518060c00160405280600073ffffffffffffffffffffffffffffffffffffffff168152602001606081526020016000815260200160008152602001600015158152602001600081525090565b6000604051905090565b600080fd5b600080fd5b6000819050919050565b610a8981610a76565b8114610a9457600080fd5b50565b600081359050610aa681610a80565b92915050565b600060208284031215610ac257610ac1610a6c565b5b6000610ad084828501610a97565b91505092915050565b600073ffffffffffffffffffffffffffffffffffffffff82169050919050565b6000610b0482610ad9565b9050919050565b610b1481610af9565b82525050565b600081519050919050565b600082825260208201905092915050565b60005b83811015610b54578082015181840152602081019050610b39565b60008484015250505050565b6000601f19601f8301169050919050565b6000610b7c82610b1a565b610b868185610b25565b9350610b96818560208601610b36565b610b9f81610b60565b840191505092915050565b610bb381610a76565b82525050565b60008115159050919050565b610bce81610bb9565b82525050565b600060c083016000830151610bec6000860182610b0b565b5060208301518482036020860152610c048282610b71565b9150506040830151610c196040860182610baa565b506060830151610c2c6060860182610baa565b506080830151610c3f6080860182610bc5565b5060a0830151610c5260a0860182610baa565b508091505092915050565b60006020820190508181036000830152610c778184610bd4565b905092915050565b610c8881610af9565b8114610c9357600080fd5b50565b600081359050610ca581610c7f565b92915050565b60008060408385031215610cc257610cc1610a6c565b5b6000610cd085828601610a97565b9250506020610ce185828601610c96565b9150509250929050565b610cf481610a76565b82525050565b6000602082019050610d0f6000830184610ceb565b92915050565b610d1e81610af9565b82525050565b6000602082019050610d396000830184610d15565b92915050565b600082825260208201905092915050565b6000610d5b82610b1a565b610d658185610d3f565b9350610d75818560208601610b36565b610d7e81610b60565b840191505092915050565b610d9281610bb9565b82525050565b600060c082019050610dad6000830189610d15565b8181036020830152610dbf8188610d50565b9050610dce6040830187610ceb565b610ddb6060830186610ceb565b610de86080830185610d89565b610df560a0830184610ceb565b979650505050505050565b600080600060608486031215610e1957610e18610a6c565b5b6000610e2786828701610c96565b9350506020610e3886828701610a97565b9250506040610e4986828701610a97565b9150509250925092565b600060208284031215610e6957610e68610a6c565b5b6000610e7784828501610c96565b91505092915050565b600080fd5b600080fd5b7f4e487b7100000000000000000000000000000000000000000000000000000000600052604160045260246000fd5b610ec282610b60565b810181811067ffffffffffffffff82111715610ee157610ee0610e8a565b5b80604052505050565b6000610ef4610a62565b9050610f008282610eb9565b919050565b600067ffffffffffffffff821115610f2057610f1f610e8a565b5b610f2982610b60565b9050602081019050919050565b82818337600083830152505050565b6000610f58610f5384610f05565b610eea565b905082815260208101848484011115610f7457610f73610e85565b5b610f7f848285610f36565b509392505050565b600082601f830112610f9c57610f9b610e80565b5b8135610fac848260208601610f45565b91505092915050565b610fbe81610bb9565b8114610fc957600080fd5b50565b600081359050610fdb81610fb5565b92915050565b60008060008060808587031215610ffb57610ffa610a6c565b5b600061100987828801610c96565b945050602085013567ffffffffffffffff81111561102a57611029610a71565b5b61103687828801610f87565b935050604061104787828801610a97565b925050606061105887828801610fcc565b91505092959194509250565b7f4e487b7100000000000000000000000000000000000000000000000000000000600052602260045260246000fd5b600060028204905060018216806110ab57607f821691505b6020821081036110be576110bd611064565b5b50919050565b7f4e6f7420796f7572207375626d697373696f6e00000000000000000000000000600082015250565b60006110fa601383610d3f565b9150611105826110c4565b602082019050919050565b60006020820190508181036000830152611129816110ed565b9050919050565b7f4e6f7420617574686f72697a6564000000000000000000000000000000000000600082015250565b6000611166600e83610d3f565b915061117182611130565b602082019050919050565b6000602082019050818103600083015261119581611159565b9050919050565b7f5375626d697373696f6e206e6f7420617070726f766564000000000000000000600082015250565b60006111d2601783610d3f565b91506111dd8261119c565b602082019050919050565b60006020820190508181036000830152611201816111c5565b9050919050565b7f4661726d6572206d69736d617463680000000000000000000000000000000000600082015250565b600061123e600f83610d3f565b915061124982611208565b602082019050919050565b6000602082019050818103600083015261126d81611231565b9050919050565b7f4e487b7100000000000000000000000000000000000000000000000000000000600052601160045260246000fd5b60006112ae82610a76565b91506112b983610a76565b92508282019050808211156112d1576112d0611274565b5b92915050565b60006040820190506112ec6000830185610ceb565b6112f96020830184610ceb565b9392505050565b600061130b82610a76565b91507fffffffffffffffffffffffffffffffffffffffffffffffffffffffffffffffff820361133d5761133c611274565b5b600182019050919050565b60008190508160005260206000209050919050565b60006020601f8301049050919050565b600082821b905092915050565b6000600883026113aa7fffffffffffffffffffffffffffffffffffffffffffffffffffffffffffffffff8261136d565b6113b4868361136d565b95508019841693508086168417925050509392505050565b6000819050919050565b60006113f16113ec6113e784610a76565b6113cc565b610a76565b9050919050565b6000819050919050565b61140b836113d6565b61141f611417826113f8565b84845461137a565b825550505050565b600090565b611434611427565b61143f818484611402565b505050565b5b818110156114635761145860008261142c565b600181019050611445565b5050565b601f8211156114a85761147981611348565b6114828461135d565b81016020851015611491578190505b6114a561149d8561135d565b830182611444565b50505b505050565b600082821c905092915050565b60006114cb600019846008026114ad565b1980831691505092915050565b60006114e483836114ba565b9150826002028217905092915050565b6114fd82610b1a565b67ffffffffffffffff81111561151657611515610e8a565b5b6115208254611093565b61152b828285611467565b600060209050601f83116001811461155e576000841561154c578287015190505b61155685826114d8565b8655506115be565b601f19841661156c86611348565b60005b828110156115945784890151825560018201915060208501945060208101905061156f565b868310156115b157848901516115ad601f8916826114ba565b8355505b6001600288020188555050505b505050505050565b60006060820190506115db6000830186610ceb565b6115e86020830185610d89565b6115f56040830184610ceb565b94935050505056fea2646970667358221220ceb1b66f83e21ed11ffd05479ad8edb5848956160ec9f4bffb7d8a73be684f3964736f6c63430008140033",
  "linkReferences": {},
  "deployedLinkReferences": {}
}